:020000040800F2
:100000000000022029030008790300087903000892
:100010007903000879030008790300080000000054
:10002000000000000000000000000000790300084C
:100030007903000800000000790300087903000834
:1000400079030008790300087903000879030008A0
:100050007903000879030008790300087903000890
:100060007903000879030008790300087903000880
:100070007903000879030008790300087903000870
:1000800079030008790300087903000800000000E4
:1000900000000000000000000000000079030008DC
:1000A0007903000879030008790300087903000840
:1000B0007903000879030008790300087903000830
:1000C0007903000879030008790300087903000820
:1000D0007903000879030008790300080000000094
:1000E0007903000879030008790300080000000084
:1000F000000000000000000000000000790300087C
:100100000000000079030008790300087903000863
:1001100000000000000000000000000000000000DF
:1001200079030008790300087903000879030008BF
:10013000790300080000000000000000000000003B
:10014000000000000000000000000000790300082B
:10015000790300087903000879030008790300088F
:100160007903000879030008000000000000000087
:10017000000000000000000000000000000000007F
:1001800000000000790300080000000000000000EB
:0801900079030008790300085F
:1001980010B5054C237833B9044B13B10448AFF3B9
:1001A80000800123237010BD000000200000000023
:1001B800C403000808B5034B1BB103490348AFF358
:1001C800008008BD0000000004000020C4030008EF
:1001D80080B483B000AF00237B6002E07B6801330A
:1001E8007B607B68044A9342F8D900BF00BF0C3794
:1001F800BD465DF8047B70471FA1070080B582B03B
:1002080000AF3B4B1B6B3A4A23F001031363384B97
:100218001B6B374A43F001031363354B5B6C344A5D
:1002280023F010035364324B5B6C314A43F01003E4
:100238005364304B1B682F4A23F4402313602D4B23
:100248001B682C4A43F4002313602A4B5B6A294A33
:1002580023F0F0035362274B5B6A264A43F070038E
:100268005362254BDB68244A23F40053D360224BA6
:10027800DB68214A43F40053D3601F4BDB681E4AF6
:1002880023F00803D3601C4BDB681B4A43F00803C8
:10029800D360194B9B68184A23F47F4323F0F0037B
:1002A8009360154B9B68144A43F080039360124B8C
:1002B8009B68114A23F00F0393600F4B9B680E4A0B
:1002C80043F00B0393600323FB710A4B5B69094AF4
:1002D80043F00803536100BF074B1B6803F080031A
:1002E800002BF9D0044B13225A60FFF771FFF2E795
:1002F80000380240000002400010014080B400AF06
:10030800064BD3F88830054A43F47003C2F88830A6
:1003180000BFBD465DF8047B704700BF00ED00E0FC
:10032800DFF834D00D480E490E4A002302E0D458B5
:10033800C4500433C4188C42F9D30B4A0B4C002325
:1003480001E013600432A242FBD3FFF7D7FF00F0AD
:1003580011F8FFF753FF704700000220000000204B
:1003680000000020E4030008000000201C0000201A
:10037800FEE7000070B50D4D0D4C641BA41000265F
:10038800A64209D10B4D0C4C00F018F8641BA410C0
:100398000026A64205D170BD55F8043B98470136A2
:1003A800EEE755F8043B98470136F2E7DC0300080E
:1003B800DC030008DC030008E0030008F8B500BF10
:1003C800F8BC08BC9E467047F8B500BFF8BC08BC2E
:0403D8009E46704786
:0403DC00BD01000857
:0403E0009901000877
:0400000508000329C3
:00000001FF
