:020000040800F2
:10000000000002203103000881030008810300087A
:10001000810300088103000881030008000000003C
:100020000000000000000000000000008103000844
:10003000810300080000000081030008810300081C
:100040008103000881030008810300088103000880
:100050008103000881030008810300088103000870
:100060008103000881030008810300088103000860
:100070008103000881030008810300088103000850
:1000800081030008810300088103000800000000CC
:1000900000000000000000000000000081030008D4
:1000A0008103000881030008810300088103000820
:1000B0008103000881030008810300088103000810
:1000C0008103000881030008810300088103000800
:1000D000810300088103000881030008000000007C
:1000E000810300088103000881030008000000006C
:1000F0000000000000000000000000008103000874
:10010000000000008103000881030008810300084B
:1001100000000000000000000000000000000000DF
:10012000810300088103000881030008810300089F
:100130008103000800000000000000000000000033
:100140000000000000000000000000008103000823
:10015000810300088103000881030008810300086F
:100160008103000881030008000000000000000077
:10017000000000000000000000000000000000007F
:1001800000000000810300080000000000000000E3
:0801900081030008810300084F
:1001980010B5054C237833B9044B13B10448AFF3B9
:1001A80000800123237010BD000000200000000023
:1001B800CC03000808B5034B1BB103490348AFF350
:1001C800008008BD0000000004000020CC030008E7
:1001D80080B483B000AF00237B6002E07B6801330A
:1001E8007B607B68044A9342F8D900BF00BF0C3794
:1001F800BD465DF8047B70471FA1070080B582B03B
:1002080000AF3D4B1B6B3C4A23F0010313633A4B91
:100218001B6B394A43F001031363374B5B6C364A57
:1002280023F010035364344B5B6C334A43F01003E0
:100238005364324B1B68314A23F4402313602F4B1D
:100248001B682E4A43F4002313602C4B5B6A2B4A2D
:1002580023F0F0035362294B5B6A284A43F070038A
:100268005362274BDB68264A23F40053D360244BA0
:10027800DB68234A43F40053D360214BDB68204AF0
:1002880023F00803D3601E4BDB681D4A43F00803C4
:10029800D3601B4B9B681A4A23F47F4323F0F00377
:1002A8009360174B9B68164A43F080039360144B86
:1002B8009B68134A23F00F039360114B9B68104A05
:1002C80043F00B0393600023FB710C4B5B690B4AF3
:1002D80043F00803536100BF094B1B6803F0800318
:1002E800002BF9D0064AFB795360FFF771FFFB79C1
:1002F800C3F10103FB71EEE7003802400000024041
:100308000010014080B400AF064BD3F88830054A8E
:1003180043F47003C2F8883000BFBD465DF8047B23
:10032800704700BF00ED00E0DFF834D00D480E49FB
:100338000E4A002302E0D458C4500433C4188C4237
:10034800F9D30B4A0B4C002301E013600432A2429C
:10035800FBD3FFF7D7FF00F011F8FFF74FFF704707
:10036800000002200000002000000020EC0300082C
:10037800000000201C000020FEE7000070B50D4DB5
:100388000D4C641BA4100026A64209D10B4D0C4C41
:1003980000F018F8641BA4100026A64205D170BD11
:1003A80055F8043B98470136EEE755F8043B984763
:1003B8000136F2E7E4030008E4030008E403000858
:1003C800E8030008F8B500BFF8BC08BC9E467047B3
:0C03D800F8B500BFF8BC08BC9E4670479A
:0403E400BD0100084F
:0403E800990100086F
:0400000508000331BB
:00000001FF
