:020000040800F2
:100000000000032059030008AD030008AD030008F9
:10001000AD030008AD030008AD03000800000000B8
:10002000000000000000000000000000AD03000818
:10003000AD03000800000000AD030008AD03000898
:10004000AD030008AD030008AD030008AD030008D0
:10005000AD030008AD030008AD030008AD030008C0
:10006000AD030008AD030008AD030008AD030008B0
:10007000AD030008AD030008AD030008AD030008A0
:10008000AD030008AD030008AD030008AD03000890
:10009000AD030008AD030008AD030008AD03000880
:1000A000AD030008AD030008AD030008AD03000870
:1000B000AD030008AD030008AD030008AD03000860
:1000C000AD030008AD030008AD030008AD03000850
:1000D000AD030008AD030008AD030008AD03000840
:1000E000AD030008AD030008AD030008AD03000830
:1000F000AD030008AD030008AD030008AD03000820
:10010000AD030008AD030008AD030008AD0300080F
:10011000AD030008AD030008AD030008AD030008FF
:10012000AD030008AD030008AD030008AD030008EF
:0C013000AD030008AD030008AD0300089B
:10013C0010B5054C237833B9044B13B10448AFF315
:10014C0000800123237010BD080000200000000077
:10015C00F803000808B5034B1BB103490348AFF380
:10016C00008008BD000000000C000020F80300080F
:10017C0080B483B000AF4FF0B043DB6C4FF0B042B3
:10018C0023F00103D3644FF0B043DB6C4FF0B0426B
:10019C0043F00103D3644FF0B0431B6E4FF0B042F9
:1001AC0023F4804313664FF0B0431B6E4FF0B04204
:1001BC0043F4804313664FF090431B684FF090421A
:1001CC0023F00C0313604FF090431B684FF09042E8
:1001DC0043F0040313604FF090431B684FF09042C0
:1001EC0023F4401313604FF090431B684FF0904280
:1001FC0043F4001313604FF090435B6A4FF090424E
:10020C0023F4706353624FF090435B6A4FF090425B
:10021C0043F4E06353621D4B1B681C4A23F001033B
:10022C0013601A4B1B68194A43F001031360174BF8
:10023C001B68164A23F004031360144B1B68134A03
:10024C0043F004031360114B2222DA600023FB718C
:10025C0000BF0E4BDB6903F02003002BF9D00B4BD6
:10026C005B6AFB714FF090435B694FF0904223F057
:10027C00020353614FF090435B69FA7952001146C7
:10028C004FF090420B435361E2E700BF003801404E
:10029C0080B400AF244BD3F88830234A43F4700366
:1002AC00C2F888304FF0B0431B684FF0B04243F0B7
:1002BC00010313604FF0B0434FF4E0229A604FF00B
:1002CC00B0431A684FF0B041184B13400B604FF01D
:1002DC00B043D3F894304FF0B04223F00503C2F88A
:1002EC0094304FF0B043D3F898304FF0B04223F035
:1002FC000103C2F898304FF0B0430D4ADA604FF06A
:10030C00B0430B4A1A614FF0B0431B684FF0B04238
:10031C0023F4802313604FF0B04300229A6100BF96
:10032C00BD465DF8047B704700ED00E0FBFEF6FA7D
:10033C0000100422D458C4500433C4188C42F9D38E
:10034C007047036004308842FBD370470C488546E5
:10035C00FFF79EFF0B480C490C4A0023FFF7EDFFFB
:10036C000B480C490023FFF7EEFF0B480B49002309
:10037C00FFF7E9FF00F016F8FFF7FAFEFEE70000C2
:10038C0000000320080000200800002018040008CA
:10039C00080000202400002000000320000003209F
:1003AC00FEE7000070B50D4D0D4C641BA41000262B
:1003BC00A64209D10B4D0C4C00F018F8641BA4108C
:1003CC000026A64205D170BD55F8043B984701366E
:1003DC00EEE755F8043B98470136F2E710040008A5
:1003EC00100400081004000814040008F8B500BF3D
:1003FC00F8BC08BC9E467047F8B500BFF8BC08BCFA
:04040C009E46704751
:04041000610100087E
:040414003D0100089E
:040000050800035993
:00000001FF
